{
  "address": "0x5FbDB2315678afecb367f032d93F642f64180aa3",
  "abi": [
    {
      "inputs": [
        {
          "internalType": "uint256",
          "name": "_premiumAmountWei",
          "type": "uint256"
        },
        {
          "internalType": "uint256",
          "name": "_policyBuyAmount",
          "type": "uint256"
        },
        {
          "internalType": "address[]",
          "name": "initialDoctors",
          "type": "address[]"
        }
      ],
      "stateMutability": "nonpayable",
      "type": "constructor"
    },
    {
      "anonymous": false,
      "inputs": [
        {
          "indexed": true,
          "internalType": "uint256",
          "name": "id",
          "type": "uint256"
        },
        {
          "indexed": true,
          "internalType": "address",
          "name": "doctor",
          "type": "address"
        },
        {
          "indexed": false,
          "internalType": "uint256",
          "name": "amount",
          "type": "uint256"
        }
      ],
      "name": "ClaimApproved",
      "type": "event"
    },
    {
      "anonymous": false,
      "inputs": [
        {
          "indexed": true,
          "internalType": "uint256",
          "name": "id",
          "type": "uint256"
        },
        {
          "indexed": true,
          "internalType": "address",
          "name": "claimant",
          "type": "address"
        },
        {
          "indexed": true,
          "internalType": "address",
          "name": "doctor",
          "type": "address"
        },
        {
          "indexed": false,
          "internalType": "uint256",
          "name": "amount",
          "type": "uint256"
        }
      ],
      "name": "ClaimSubmitted",
      "type": "event"
    },
    {
      "anonymous": false,
      "inputs": [
        {
          "indexed": true,
          "internalType": "address",
          "name": "doctor",
          "type": "address"
        }
      ],
      "name": "DoctorAdded",
      "type": "event"
    },
    {
      "anonymous": false,
      "inputs": [
        {
          "indexed": true,
          "internalType": "address",
          "name": "doctor",
          "type": "address"
        }
      ],
      "name": "DoctorRemoved",
      "type": "event"
    },
    {
      "anonymous": false,
      "inputs": [
        {
          "indexed": true,
          "internalType": "address",
          "name": "who",
          "type": "address"
        },
        {
          "indexed": false,
          "internalType": "uint256",
          "name": "nextDue",
          "type": "uint256"
        }
      ],
      "name": "PolicyBought",
      "type": "event"
    },
    {
      "anonymous": false,
      "inputs": [
        {
          "indexed": true,
          "internalType": "address",
          "name": "who",
          "type": "address"
        },
        {
          "indexed": false,
          "internalType": "uint256",
          "name": "when",
          "type": "uint256"
        }
      ],
      "name": "PolicyCancelled",
      "type": "event"
    },
    {
      "anonymous": false,
      "inputs": [
        {
          "indexed": true,
          "internalType": "address",
          "name": "who",
          "type": "address"
        },
        {
          "indexed": false,
          "internalType": "uint256",
          "name": "nextDue",
          "type": "uint256"
        }
      ],
      "name": "PremiumPaid",
      "type": "event"
    },
    {
      "anonymous": false,
      "inputs": [
        {
          "indexed": true,
          "internalType": "address",
          "name": "by",
          "type": "address"
        },
        {
          "indexed": false,
          "internalType": "uint256",
          "name": "amount",
          "type": "uint256"
        }
      ],
      "name": "Withdraw",
      "type": "event"
    },
    {
      "inputs": [],
      "name": "MONTH",
      "outputs": [
        {
          "internalType": "uint256",
          "name": "",
          "type": "uint256"
        }
      ],
      "stateMutability": "view",
      "type": "function"
    },
    {
      "inputs": [
        {
          "internalType": "address",
          "name": "doctor",
          "type": "address"
        }
      ],
      "name": "addDoctor",
      "outputs": [],
      "stateMutability": "nonpayable",
      "type": "function"
    },
    {
      "inputs": [
        {
          "internalType": "uint256",
          "name": "claimId",
          "type": "uint256"
        }
      ],
      "name": "approveClaim",
      "outputs": [],
      "stateMutability": "nonpayable",
      "type": "function"
    },
    {
      "inputs": [
        {
          "internalType": "address",
          "name": "",
          "type": "address"
        }
      ],
      "name": "authorisedDoctor",
      "outputs": [
        {
          "internalType": "bool",
          "name": "",
          "type": "bool"
        }
      ],
      "stateMutability": "view",
      "type": "function"
    },
    {
      "inputs": [],
      "name": "buyPolicy",
      "outputs": [],
      "stateMutability": "payable",
      "type": "function"
    },
    {
      "inputs": [
        {
          "internalType": "uint256",
          "name": "",
          "type": "uint256"
        }
      ],
      "name": "claims",
      "outputs": [
        {
          "internalType": "uint256",
          "name": "id",
          "type": "uint256"
        },
        {
          "internalType": "address",
          "name": "claimant",
          "type": "address"
        },
        {
          "internalType": "address",
          "name": "doctor",
          "type": "address"
        },
        {
          "internalType": "uint256",
          "name": "amount",
          "type": "uint256"
        },
        {
          "internalType": "bool",
          "name": "approved",
          "type": "bool"
        },
        {
          "internalType": "bool",
          "name": "paid",
          "type": "bool"
        }
      ],
      "stateMutability": "view",
      "type": "function"
    },
    {
      "inputs": [
        {
          "internalType": "address",
          "name": "user",
          "type": "address"
        }
      ],
      "name": "enforceCancellation",
      "outputs": [],
      "stateMutability": "nonpayable",
      "type": "function"
    },
    {
      "inputs": [
        {
          "internalType": "address",
          "name": "user",
          "type": "address"
        }
      ],
      "name": "isPolicyActiveView",
      "outputs": [
        {
          "internalType": "bool",
          "name": "",
          "type": "bool"
        }
      ],
      "stateMutability": "view",
      "type": "function"
    },
    {
      "inputs": [],
      "name": "nextClaimId",
      "outputs": [
        {
          "internalType": "uint256",
          "name": "",
          "type": "uint256"
        }
      ],
      "stateMutability": "view",
      "type": "function"
    },
    {
      "inputs": [],
      "name": "owner",
      "outputs": [
        {
          "internalType": "address",
          "name": "",
          "type": "address"
        }
      ],
      "stateMutability": "view",
      "type": "function"
    },
    {
      "inputs": [],
      "name": "payPremium",
      "outputs": [],
      "stateMutability": "payable",
      "type": "function"
    },
    {
      "inputs": [
        {
          "internalType": "address",
          "name": "",
          "type": "address"
        }
      ],
      "name": "policies",
      "outputs": [
        {
          "internalType": "bool",
          "name": "active",
          "type": "bool"
        },
        {
          "internalType": "uint256",
          "name": "nextDue",
          "type": "uint256"
        }
      ],
      "stateMutability": "view",
      "type": "function"
    },
    {
      "inputs": [],
      "name": "policyBuyAmount",
      "outputs": [
        {
          "internalType": "uint256",
          "name": "",
          "type": "uint256"
        }
      ],
      "stateMutability": "view",
      "type": "function"
    },
    {
      "inputs": [],
      "name": "premiumAmount",
      "outputs": [
        {
          "internalType": "uint256",
          "name": "",
          "type": "uint256"
        }
      ],
      "stateMutability": "view",
      "type": "function"
    },
    {
      "inputs": [
        {
          "internalType": "address",
          "name": "doctor",
          "type": "address"
        }
      ],
      "name": "removeDoctor",
      "outputs": [],
      "stateMutability": "nonpayable",
      "type": "function"
    },
    {
      "inputs": [
        {
          "internalType": "address",
          "name": "doctor",
          "type": "address"
        },
        {
          "internalType": "uint256",
          "name": "amountWei",
          "type": "uint256"
        }
      ],
      "name": "submitClaim",
      "outputs": [
        {
          "internalType": "uint256",
          "name": "",
          "type": "uint256"
        }
      ],
      "stateMutability": "nonpayable",
      "type": "function"
    },
    {
      "inputs": [
        {
          "internalType": "uint256",
          "name": "amountWei",
          "type": "uint256"
        }
      ],
      "name": "withdraw",
      "outputs": [],
      "stateMutability": "nonpayable",
      "type": "function"
    },
    {
      "stateMutability": "payable",
      "type": "receive"
    }
  ],
  "transactionHash": "0x54837d394ff2917c878cd1c83f3fa411c6ea25314037bbdfd4550ab4168e5c26",
  "args": [
    "5000000000000000",
    "20000000000000000",
    [
      "0x70997970C51812dc3A010C7d01b50e0d17dc79C8",
      "0x3C44CdDdB6a900fa2b585dd299e03d12FA4293BC",
      "0x90F79bf6EB2c4f870365E785982E1f101E93b906"
    ]
  ],
  "numDeployments": 1,
  "solcInputHash": "0d35d4febf4e482225331d7dc4c29e13",
  "bytecode": "0x608060405234801561001057600080fd5b5060405161251d38038061251d83398181016040528101906100329190610372565b336000806101000a81548173ffffffffffffffffffffffffffffffffffffffff021916908373ffffffffffffffffffffffffffffffffffffffff160217905550826001819055508160028190555060005b8151811015610168576001600460008484815181106100a5576100a46103e1565b5b602002602001015173ffffffffffffffffffffffffffffffffffffffff1673ffffffffffffffffffffffffffffffffffffffff16815260200190815260200160002060006101000a81548160ff021916908315150217905550818181518110610111576101106103e1565b5b602002602001015173ffffffffffffffffffffffffffffffffffffffff167f69908b2e63170aa89ef89719bbe3b4c92cccc38653968ab25f4464eff7c28ac860405160405180910390a28080600101915050610083565b50505050610410565b6000604051905090565b600080fd5b600080fd5b6000819050919050565b61019881610185565b81146101a357600080fd5b50565b6000815190506101b58161018f565b92915050565b600080fd5b6000601f19601f8301169050919050565b7f4e487b7100000000000000000000000000000000000000000000000000000000600052604160045260246000fd5b610209826101c0565b810181811067ffffffffffffffff82111715610228576102276101d1565b5b80604052505050565b600061023b610171565b90506102478282610200565b919050565b600067ffffffffffffffff821115610267576102666101d1565b5b602082029050602081019050919050565b600080fd5b600073ffffffffffffffffffffffffffffffffffffffff82169050919050565b60006102a88261027d565b9050919050565b6102b88161029d565b81146102c357600080fd5b50565b6000815190506102d5816102af565b92915050565b60006102ee6102e98461024c565b610231565b9050808382526020820190506020840283018581111561031157610310610278565b5b835b8181101561033a578061032688826102c6565b845260208401935050602081019050610313565b5050509392505050565b600082601f830112610359576103586101bb565b5b81516103698482602086016102db565b91505092915050565b60008060006060848603121561038b5761038a61017b565b5b6000610399868287016101a6565b93505060206103aa868287016101a6565b925050604084015167ffffffffffffffff8111156103cb576103ca610180565b5b6103d786828701610344565b9150509250925092565b7f4e487b7100000000000000000000000000000000000000000000000000000000600052603260045260246000fd5b6120fe8061041f6000396000f3fe6080604052600436106101025760003560e01c80638da5cb5b11610095578063a888c2cd11610064578063a888c2cd146102eb578063abd0d2ae1461032d578063c75caf1014610358578063d5999a5c14610395578063ffbc2ef4146103c057610109565b80638da5cb5b1461022f57806398fc90e91461025a578063995725ab14610283578063a0021cf1146102c057610109565b806344530f3a116100d157806344530f3a146101a857806346e30135146101d35780634780468f146101fc5780637457a7ac1461022557610109565b806320e986981461010e57806329c08ba21461014c5780632e1a7d4d1461015657806335cc68ef1461017f57610109565b3661010957005b600080fd5b34801561011a57600080fd5b5061013560048036038101906101309190611624565b6103fd565b604051610143929190611685565b60405180910390f35b61015461042e565b005b34801561016257600080fd5b5061017d600480360381019061017891906116da565b6105bd565b005b34801561018b57600080fd5b506101a660048036038101906101a19190611624565b6107ad565b005b3480156101b457600080fd5b506101bd610886565b6040516101ca9190611707565b60405180910390f35b3480156101df57600080fd5b506101fa60048036038101906101f591906116da565b61088c565b005b34801561020857600080fd5b50610223600480360381019061021e9190611624565b610ca3565b005b61022d610dcf565b005b34801561023b57600080fd5b50610244610fe5565b6040516102519190611731565b60405180910390f35b34801561026657600080fd5b50610281600480360381019061027c9190611624565b611009565b005b34801561028f57600080fd5b506102aa60048036038101906102a59190611624565b611135565b6040516102b7919061174c565b60405180910390f35b3480156102cc57600080fd5b506102d56111a3565b6040516102e29190611707565b60405180910390f35b3480156102f757600080fd5b50610312600480360381019061030d91906116da565b6111a9565b60405161032496959493929190611767565b60405180910390f35b34801561033957600080fd5b5061034261123f565b60405161034f9190611707565b60405180910390f35b34801561036457600080fd5b5061037f600480360381019061037a9190611624565b611245565b60405161038c919061174c565b60405180910390f35b3480156103a157600080fd5b506103aa611265565b6040516103b79190611707565b60405180910390f35b3480156103cc57600080fd5b506103e760048036038101906103e291906117c8565b61126c565b6040516103f49190611707565b60405180910390f35b60036020528060005260406000206000915090508060000160009054906101000a900460ff16908060010154905082565b6000600360003373ffffffffffffffffffffffffffffffffffffffff1673ffffffffffffffffffffffffffffffffffffffff16815260200190815260200160002090508060000160009054906101000a900460ff166104c2576040517f08c379a00000000000000000000000000000000000000000000000000000000081526004016104b990611865565b60405180910390fd5b8060010154421115610509576040517f08c379a0000000000000000000000000000000000000000000000000000000008152600401610500906118d1565b60405180910390fd5b600154341461054d576040517f08c379a00000000000000000000000000000000000000000000000000000000081526004016105449061193d565b60405180910390fd5b62278d008160010154610560919061198c565b81600101819055503373ffffffffffffffffffffffffffffffffffffffff167fa21795436a9f6a3b412fd6780f01a49907f2181e76e938496b0a41991d99b61c82600101546040516105b29190611707565b60405180910390a250565b60008054906101000a900473ffffffffffffffffffffffffffffffffffffffff1673ffffffffffffffffffffffffffffffffffffffff163373ffffffffffffffffffffffffffffffffffffffff161461064b576040517f08c379a000000000000000000000000000000000000000000000000000000000815260040161064290611a0c565b60405180910390fd5b8047101561068e576040517f08c379a000000000000000000000000000000000000000000000000000000000815260040161068590611a78565b60405180910390fd5b60008060009054906101000a900473ffffffffffffffffffffffffffffffffffffffff1673ffffffffffffffffffffffffffffffffffffffff16826040516106d590611ac9565b60006040518083038185875af1925050503d8060008114610712576040519150601f19603f3d011682016040523d82523d6000602084013e610717565b606091505b505090508061075b576040517f08c379a000000000000000000000000000000000000000000000000000000000815260040161075290611b2a565b60405180910390fd5b3373ffffffffffffffffffffffffffffffffffffffff167f884edad9ce6fa2440d8a54cc123490eb96d2768479d49ff9c7366125a9424364836040516107a19190611707565b60405180910390a25050565b6000600360008373ffffffffffffffffffffffffffffffffffffffff1673ffffffffffffffffffffffffffffffffffffffff16815260200190815260200160002090508060000160009054906101000a900460ff1680156108115750806001015442115b156108825760008160000160006101000a81548160ff0219169083151502179055508173ffffffffffffffffffffffffffffffffffffffff167f048fb8b64fa79439a74a2685aad90d80b18c62fea453816f13d01f06262be07a426040516108799190611707565b60405180910390a25b5050565b60015481565b600460003373ffffffffffffffffffffffffffffffffffffffff1673ffffffffffffffffffffffffffffffffffffffff16815260200190815260200160002060009054906101000a900460ff16610918576040517f08c379a000000000000000000000000000000000000000000000000000000000815260040161090f90611b96565b60405180910390fd5b6000600560008381526020019081526020016000209050600073ffffffffffffffffffffffffffffffffffffffff168160010160009054906101000a900473ffffffffffffffffffffffffffffffffffffffff1673ffffffffffffffffffffffffffffffffffffffff16036109c2576040517f08c379a00000000000000000000000000000000000000000000000000000000081526004016109b990611c02565b60405180910390fd5b8060040160009054906101000a900460ff1615610a14576040517f08c379a0000000000000000000000000000000000000000000000000000000008152600401610a0b90611c6e565b60405180910390fd5b8060040160019054906101000a900460ff1615610a66576040517f08c379a0000000000000000000000000000000000000000000000000000000008152600401610a5d90611cda565b60405180910390fd5b3373ffffffffffffffffffffffffffffffffffffffff168160020160009054906101000a900473ffffffffffffffffffffffffffffffffffffffff1673ffffffffffffffffffffffffffffffffffffffff1614610af8576040517f08c379a0000000000000000000000000000000000000000000000000000000008152600401610aef90611d6c565b60405180910390fd5b60008160030154905080471015610b44576040517f08c379a0000000000000000000000000000000000000000000000000000000008152600401610b3b90611dd8565b60405180910390fd5b60018260040160006101000a81548160ff02191690831515021790555060018260040160016101000a81548160ff02191690831515021790555060008260010160009054906101000a900473ffffffffffffffffffffffffffffffffffffffff1673ffffffffffffffffffffffffffffffffffffffff1682604051610bc890611ac9565b60006040518083038185875af1925050503d8060008114610c05576040519150601f19603f3d011682016040523d82523d6000602084013e610c0a565b606091505b5050905080610c4e576040517f08c379a0000000000000000000000000000000000000000000000000000000008152600401610c4590611e44565b60405180910390fd5b3373ffffffffffffffffffffffffffffffffffffffff16847f0b582d60859bb6c5e17bb049bc83044c0c8dab7d0a026b4e3a4a2966d8926de584604051610c959190611707565b60405180910390a350505050565b60008054906101000a900473ffffffffffffffffffffffffffffffffffffffff1673ffffffffffffffffffffffffffffffffffffffff163373ffffffffffffffffffffffffffffffffffffffff1614610d31576040517f08c379a0000000000000000000000000000000000000000000000000000000008152600401610d2890611a0c565b60405180910390fd5b6001600460008373ffffffffffffffffffffffffffffffffffffffff1673ffffffffffffffffffffffffffffffffffffffff16815260200190815260200160002060006101000a81548160ff0219169083151502179055508073ffffffffffffffffffffffffffffffffffffffff167f69908b2e63170aa89ef89719bbe3b4c92cccc38653968ab25f4464eff7c28ac860405160405180910390a250565b600360003373ffffffffffffffffffffffffffffffffffffffff1673ffffffffffffffffffffffffffffffffffffffff16815260200190815260200160002060000160009054906101000a900460ff1615610e5f576040517f08c379a0000000000000000000000000000000000000000000000000000000008152600401610e5690611eb0565b60405180910390fd5b6002543414610ea3576040517f08c379a0000000000000000000000000000000000000000000000000000000008152600401610e9a90611f1c565b60405180910390fd5b6001600360003373ffffffffffffffffffffffffffffffffffffffff1673ffffffffffffffffffffffffffffffffffffffff16815260200190815260200160002060000160006101000a81548160ff02191690831515021790555062278d0042610f0d919061198c565b600360003373ffffffffffffffffffffffffffffffffffffffff1673ffffffffffffffffffffffffffffffffffffffff168152602001908152602001600020600101819055503373ffffffffffffffffffffffffffffffffffffffff167fa7d4ca948d4e6a87a9559f35c22079d7813c51c4957e2e8c7ec35f8073a2c1b5600360003373ffffffffffffffffffffffffffffffffffffffff1673ffffffffffffffffffffffffffffffffffffffff16815260200190815260200160002060010154604051610fdb9190611707565b60405180910390a2565b60008054906101000a900473ffffffffffffffffffffffffffffffffffffffff1681565b60008054906101000a900473ffffffffffffffffffffffffffffffffffffffff1673ffffffffffffffffffffffffffffffffffffffff163373ffffffffffffffffffffffffffffffffffffffff1614611097576040517f08c379a000000000000000000000000000000000000000000000000000000000815260040161108e90611a0c565b60405180910390fd5b6000600460008373ffffffffffffffffffffffffffffffffffffffff1673ffffffffffffffffffffffffffffffffffffffff16815260200190815260200160002060006101000a81548160ff0219169083151502179055508073ffffffffffffffffffffffffffffffffffffffff167f493d7cf6a7c880406a55654d6727464ea088bd01d40498e1987a327e68961ab860405160405180910390a250565b600080600360008473ffffffffffffffffffffffffffffffffffffffff1673ffffffffffffffffffffffffffffffffffffffff16815260200190815260200160002090508060000160009054906101000a900460ff16801561119b575080600101544211155b915050919050565b60065481565b60056020528060005260406000206000915090508060000154908060010160009054906101000a900473ffffffffffffffffffffffffffffffffffffffff16908060020160009054906101000a900473ffffffffffffffffffffffffffffffffffffffff16908060030154908060040160009054906101000a900460ff16908060040160019054906101000a900460ff16905086565b60025481565b60046020528060005260406000206000915054906101000a900460ff1681565b62278d0081565b6000611277336107ad565b6000600360003373ffffffffffffffffffffffffffffffffffffffff1673ffffffffffffffffffffffffffffffffffffffff16815260200190815260200160002090508060000160009054906101000a900460ff1661130b576040517f08c379a000000000000000000000000000000000000000000000000000000000815260040161130290611f88565b60405180910390fd5b8060010154421115611352576040517f08c379a000000000000000000000000000000000000000000000000000000000815260040161134990611ff4565b60405180910390fd5b600460008573ffffffffffffffffffffffffffffffffffffffff1673ffffffffffffffffffffffffffffffffffffffff16815260200190815260200160002060009054906101000a900460ff166113de576040517f08c379a00000000000000000000000000000000000000000000000000000000081526004016113d590612060565b60405180910390fd5b6000600660008154809291906113f390612080565b9190505590506040518060c001604052808281526020013373ffffffffffffffffffffffffffffffffffffffff1681526020018673ffffffffffffffffffffffffffffffffffffffff16815260200185815260200160001515815260200160001515815250600560008381526020019081526020016000206000820151816000015560208201518160010160006101000a81548173ffffffffffffffffffffffffffffffffffffffff021916908373ffffffffffffffffffffffffffffffffffffffff16021790555060408201518160020160006101000a81548173ffffffffffffffffffffffffffffffffffffffff021916908373ffffffffffffffffffffffffffffffffffffffff1602179055506060820151816003015560808201518160040160006101000a81548160ff02191690831515021790555060a08201518160040160016101000a81548160ff0219169083151502179055509050508473ffffffffffffffffffffffffffffffffffffffff163373ffffffffffffffffffffffffffffffffffffffff16827f496125846b0e8273879f707f2ee3c888aa2fb21ac034e43d07eaa904357e4377876040516115ae9190611707565b60405180910390a4809250505092915050565b600080fd5b600073ffffffffffffffffffffffffffffffffffffffff82169050919050565b60006115f1826115c6565b9050919050565b611601816115e6565b811461160c57600080fd5b50565b60008135905061161e816115f8565b92915050565b60006020828403121561163a576116396115c1565b5b60006116488482850161160f565b91505092915050565b60008115159050919050565b61166681611651565b82525050565b6000819050919050565b61167f8161166c565b82525050565b600060408201905061169a600083018561165d565b6116a76020830184611676565b9392505050565b6116b78161166c565b81146116c257600080fd5b50565b6000813590506116d4816116ae565b92915050565b6000602082840312156116f0576116ef6115c1565b5b60006116fe848285016116c5565b91505092915050565b600060208201905061171c6000830184611676565b92915050565b61172b816115e6565b82525050565b60006020820190506117466000830184611722565b92915050565b6000602082019050611761600083018461165d565b92915050565b600060c08201905061177c6000830189611676565b6117896020830188611722565b6117966040830187611722565b6117a36060830186611676565b6117b0608083018561165d565b6117bd60a083018461165d565b979650505050505050565b600080604083850312156117df576117de6115c1565b5b60006117ed8582860161160f565b92505060206117fe858286016116c5565b9150509250929050565b600082825260208201905092915050565b7f4e6f2061637469766520706f6c69637900000000000000000000000000000000600082015250565b600061184f601083611808565b915061185a82611819565b602082019050919050565b6000602082019050818103600083015261187e81611842565b9050919050565b7f506f6c6963792065787069726564202d2063616e63656c6c6564000000000000600082015250565b60006118bb601a83611808565b91506118c682611885565b602082019050919050565b600060208201905081810360008301526118ea816118ae565b9050919050565b7f53656e64206578616374207072656d69756d0000000000000000000000000000600082015250565b6000611927601283611808565b9150611932826118f1565b602082019050919050565b600060208201905081810360008301526119568161191a565b9050919050565b7f4e487b7100000000000000000000000000000000000000000000000000000000600052601160045260246000fd5b60006119978261166c565b91506119a28361166c565b92508282019050808211156119ba576119b961195d565b5b92915050565b7f4f6e6c79206f776e657200000000000000000000000000000000000000000000600082015250565b60006119f6600a83611808565b9150611a01826119c0565b602082019050919050565b60006020820190508181036000830152611a25816119e9565b9050919050565b7f496e73756666696369656e742062616c616e6365000000000000000000000000600082015250565b6000611a62601483611808565b9150611a6d82611a2c565b602082019050919050565b60006020820190508181036000830152611a9181611a55565b9050919050565b600081905092915050565b50565b6000611ab3600083611a98565b9150611abe82611aa3565b600082019050919050565b6000611ad482611aa6565b9150819050919050565b7f5769746864726177206661696c65640000000000000000000000000000000000600082015250565b6000611b14600f83611808565b9150611b1f82611ade565b602082019050919050565b60006020820190508181036000830152611b4381611b07565b9050919050565b7f4e6f7420616e20617574686f726973656420646f63746f720000000000000000600082015250565b6000611b80601883611808565b9150611b8b82611b4a565b602082019050919050565b60006020820190508181036000830152611baf81611b73565b9050919050565b7f496e76616c696420636c61696d00000000000000000000000000000000000000600082015250565b6000611bec600d83611808565b9150611bf782611bb6565b602082019050919050565b60006020820190508181036000830152611c1b81611bdf565b9050919050565b7f416c726561647920617070726f76656400000000000000000000000000000000600082015250565b6000611c58601083611808565b9150611c6382611c22565b602082019050919050565b60006020820190508181036000830152611c8781611c4b565b9050919050565b7f416c726561647920706169640000000000000000000000000000000000000000600082015250565b6000611cc4600c83611808565b9150611ccf82611c8e565b602082019050919050565b60006020820190508181036000830152611cf381611cb7565b9050919050565b7f446f63746f72206e6f742061737369676e656420746f207468697320636c616960008201527f6d00000000000000000000000000000000000000000000000000000000000000602082015250565b6000611d56602183611808565b9150611d6182611cfa565b604082019050919050565b60006020820190508181036000830152611d8581611d49565b9050919050565b7f496e73756666696369656e7420636f6e74726163742062616c616e6365000000600082015250565b6000611dc2601d83611808565b9150611dcd82611d8c565b602082019050919050565b60006020820190508181036000830152611df181611db5565b9050919050565b7f5472616e73666572206661696c65640000000000000000000000000000000000600082015250565b6000611e2e600f83611808565b9150611e3982611df8565b602082019050919050565b60006020820190508181036000830152611e5d81611e21565b9050919050565b7f506f6c69637920616c7265616479206163746976650000000000000000000000600082015250565b6000611e9a601583611808565b9150611ea582611e64565b602082019050919050565b60006020820190508181036000830152611ec981611e8d565b9050919050565b7f53656e6420657861637420616d6f756e74000000000000000000000000000000600082015250565b6000611f06601183611808565b9150611f1182611ed0565b602082019050919050565b60006020820190508181036000830152611f3581611ef9565b9050919050565b7f506f6c696379206e6f7420616374697665000000000000000000000000000000600082015250565b6000611f72601183611808565b9150611f7d82611f3c565b602082019050919050565b60006020820190508181036000830152611fa181611f65565b9050919050565b7f506f6c6963792065787069726564000000000000000000000000000000000000600082015250565b6000611fde600e83611808565b9150611fe982611fa8565b602082019050919050565b6000602082019050818103600083015261200d81611fd1565b9050919050565b7f446f63746f72206e6f7420617574686f72697365640000000000000000000000600082015250565b600061204a601583611808565b915061205582612014565b602082019050919050565b600060208201905081810360008301526120798161203d565b9050919050565b600061208b8261166c565b91507fffffffffffffffffffffffffffffffffffffffffffffffffffffffffffffffff82036120bd576120bc61195d565b5b60018201905091905056fea264697066735822122056537bd447258c14e85090261629d1a4f17ad94ef16f8c8526bd77fd0a2cc76664736f6c634300081c0033",
  "devdoc": {
    "kind": "dev",
    "methods": {},
    "version": 1
  },
  "userdoc": {
    "kind": "user",
    "methods": {},
    "version": 1
  },
  "storageLayout": {
    "storage": [
      {
        "astId": 3,
        "contract": "contracts/Insurance.sol:Insurance",
        "label": "owner",
        "offset": 0,
        "slot": "0",
        "type": "t_address"
      },
      {
        "astId": 5,
        "contract": "contracts/Insurance.sol:Insurance",
        "label": "premiumAmount",
        "offset": 0,
        "slot": "1",
        "type": "t_uint256"
      },
      {
        "astId": 7,
        "contract": "contracts/Insurance.sol:Insurance",
        "label": "policyBuyAmount",
        "offset": 0,
        "slot": "2",
        "type": "t_uint256"
      },
      {
        "astId": 33,
        "contract": "contracts/Insurance.sol:Insurance",
        "label": "policies",
        "offset": 0,
        "slot": "3",
        "type": "t_mapping(t_address,t_struct(Policy)15_storage)"
      },
      {
        "astId": 37,
        "contract": "contracts/Insurance.sol:Insurance",
        "label": "authorisedDoctor",
        "offset": 0,
        "slot": "4",
        "type": "t_mapping(t_address,t_bool)"
      },
      {
        "astId": 42,
        "contract": "contracts/Insurance.sol:Insurance",
        "label": "claims",
        "offset": 0,
        "slot": "5",
        "type": "t_mapping(t_uint256,t_struct(Claim)28_storage)"
      },
      {
        "astId": 44,
        "contract": "contracts/Insurance.sol:Insurance",
        "label": "nextClaimId",
        "offset": 0,
        "slot": "6",
        "type": "t_uint256"
      }
    ],
    "types": {
      "t_address": {
        "encoding": "inplace",
        "label": "address",
        "numberOfBytes": "20"
      },
      "t_bool": {
        "encoding": "inplace",
        "label": "bool",
        "numberOfBytes": "1"
      },
      "t_mapping(t_address,t_bool)": {
        "encoding": "mapping",
        "key": "t_address",
        "label": "mapping(address => bool)",
        "numberOfBytes": "32",
        "value": "t_bool"
      },
      "t_mapping(t_address,t_struct(Policy)15_storage)": {
        "encoding": "mapping",
        "key": "t_address",
        "label": "mapping(address => struct Insurance.Policy)",
        "numberOfBytes": "32",
        "value": "t_struct(Policy)15_storage"
      },
      "t_mapping(t_uint256,t_struct(Claim)28_storage)": {
        "encoding": "mapping",
        "key": "t_uint256",
        "label": "mapping(uint256 => struct Insurance.Claim)",
        "numberOfBytes": "32",
        "value": "t_struct(Claim)28_storage"
      },
      "t_struct(Claim)28_storage": {
        "encoding": "inplace",
        "label": "struct Insurance.Claim",
        "members": [
          {
            "astId": 17,
            "contract": "contracts/Insurance.sol:Insurance",
            "label": "id",
            "offset": 0,
            "slot": "0",
            "type": "t_uint256"
          },
          {
            "astId": 19,
            "contract": "contracts/Insurance.sol:Insurance",
            "label": "claimant",
            "offset": 0,
            "slot": "1",
            "type": "t_address"
          },
          {
            "astId": 21,
            "contract": "contracts/Insurance.sol:Insurance",
            "label": "doctor",
            "offset": 0,
            "slot": "2",
            "type": "t_address"
          },
          {
            "astId": 23,
            "contract": "contracts/Insurance.sol:Insurance",
            "label": "amount",
            "offset": 0,
            "slot": "3",
            "type": "t_uint256"
          },
          {
            "astId": 25,
            "contract": "contracts/Insurance.sol:Insurance",
            "label": "approved",
            "offset": 0,
            "slot": "4",
            "type": "t_bool"
          },
          {
            "astId": 27,
            "contract": "contracts/Insurance.sol:Insurance",
            "label": "paid",
            "offset": 1,
            "slot": "4",
            "type": "t_bool"
          }
        ],
        "numberOfBytes": "160"
      },
      "t_struct(Policy)15_storage": {
        "encoding": "inplace",
        "label": "struct Insurance.Policy",
        "members": [
          {
            "astId": 12,
            "contract": "contracts/Insurance.sol:Insurance",
            "label": "active",
            "offset": 0,
            "slot": "0",
            "type": "t_bool"
          },
          {
            "astId": 14,
            "contract": "contracts/Insurance.sol:Insurance",
            "label": "nextDue",
            "offset": 0,
            "slot": "1",
            "type": "t_uint256"
          }
        ],
        "numberOfBytes": "64"
      },
      "t_uint256": {
        "encoding": "inplace",
        "label": "uint256",
        "numberOfBytes": "32"
      }
    }
  }
}